{
  "contractName": "Scholarship",
  "abi": [
    {
      "inputs": [],
      "stateMutability": "nonpayable",
      "type": "constructor"
    },
    {
      "anonymous": false,
      "inputs": [
        {
          "indexed": true,
          "internalType": "address",
          "name": "applicant",
          "type": "address"
        }
      ],
      "name": "Applied",
      "type": "event"
    },
    {
      "anonymous": false,
      "inputs": [
        {
          "indexed": true,
          "internalType": "address",
          "name": "donor",
          "type": "address"
        },
        {
          "indexed": false,
          "internalType": "uint256",
          "name": "amount",
          "type": "uint256"
        }
      ],
      "name": "Donated",
      "type": "event"
    },
    {
      "anonymous": false,
      "inputs": [
        {
          "indexed": true,
          "internalType": "address",
          "name": "recipient",
          "type": "address"
        },
        {
          "indexed": false,
          "internalType": "uint256",
          "name": "amount",
          "type": "uint256"
        }
      ],
      "name": "FundsReleased",
      "type": "event"
    },
    {
      "inputs": [],
      "name": "admin",
      "outputs": [
        {
          "internalType": "address",
          "name": "",
          "type": "address"
        }
      ],
      "stateMutability": "view",
      "type": "function"
    },
    {
      "inputs": [
        {
          "internalType": "address",
          "name": "",
          "type": "address"
        }
      ],
      "name": "applicants",
      "outputs": [
        {
          "internalType": "bool",
          "name": "",
          "type": "bool"
        }
      ],
      "stateMutability": "view",
      "type": "function"
    },
    {
      "inputs": [],
      "name": "totalDonations",
      "outputs": [
        {
          "internalType": "uint256",
          "name": "",
          "type": "uint256"
        }
      ],
      "stateMutability": "view",
      "type": "function"
    },
    {
      "inputs": [],
      "name": "donate",
      "outputs": [],
      "stateMutability": "payable",
      "type": "function"
    },
    {
      "inputs": [],
      "name": "applyForScholarship",
      "outputs": [],
      "stateMutability": "nonpayable",
      "type": "function"
    },
    {
      "inputs": [
        {
          "internalType": "address payable",
          "name": "recipient",
          "type": "address"
        },
        {
          "internalType": "uint256",
          "name": "amount",
          "type": "uint256"
        }
      ],
      "name": "releaseFunds",
      "outputs": [],
      "stateMutability": "nonpayable",
      "type": "function"
    },
    {
      "inputs": [],
      "name": "getBalance",
      "outputs": [
        {
          "internalType": "uint256",
          "name": "",
          "type": "uint256"
        }
      ],
      "stateMutability": "view",
      "type": "function"
    }
  ],
  "bytecode": "0x608060405234801561001057600080fd5b50336000806101000a81548173ffffffffffffffffffffffffffffffffffffffff021916908373ffffffffffffffffffffffffffffffffffffffff16021790555061091b806100606000396000f3fe6080604052600436106100705760003560e01c8063d6e982e51161004e578063d6e982e5146100f4578063de2ed8931461011d578063ed88c68e14610148578063f851a4401461015257610070565b806312065fe0146100755780635a9ffa2e146100a0578063ccd66863146100b7575b600080fd5b34801561008157600080fd5b5061008a61017d565b6040516100979190610795565b60405180910390f35b3480156100ac57600080fd5b506100b5610185565b005b3480156100c357600080fd5b506100de60048036038101906100d9919061054d565b6102ae565b6040516100eb91906106fa565b60405180910390f35b34801561010057600080fd5b5061011b60048036038101906101169190610576565b6102ce565b005b34801561012957600080fd5b50610132610438565b60405161013f9190610795565b60405180910390f35b61015061043e565b005b34801561015e57600080fd5b506101676104ea565b60405161017491906106df565b60405180910390f35b600047905090565b600160003373ffffffffffffffffffffffffffffffffffffffff1673ffffffffffffffffffffffffffffffffffffffff16815260200190815260200160002060009054906101000a900460ff1615610212576040517f08c379a000000000000000000000000000000000000000000000000000000000815260040161020990610775565b60405180910390fd5b60018060003373ffffffffffffffffffffffffffffffffffffffff1673ffffffffffffffffffffffffffffffffffffffff16815260200190815260200160002060006101000a81548160ff0219169083151502179055503373ffffffffffffffffffffffffffffffffffffffff167f83f970044e0c4e2d8a4922431cb57df4cd6dc71f67b619eb184d105e3b6d917a60405160405180910390a2565b60016020528060005260406000206000915054906101000a900460ff1681565b60008054906101000a900473ffffffffffffffffffffffffffffffffffffffff1673ffffffffffffffffffffffffffffffffffffffff163373ffffffffffffffffffffffffffffffffffffffff161461035c576040517f08c379a000000000000000000000000000000000000000000000000000000000815260040161035390610755565b60405180910390fd5b8047101561039f576040517f08c379a000000000000000000000000000000000000000000000000000000000815260040161039690610735565b60405180910390fd5b8173ffffffffffffffffffffffffffffffffffffffff166108fc829081150290604051600060405180830381858888f193505050501580156103e5573d6000803e3d6000fd5b508173ffffffffffffffffffffffffffffffffffffffff167f221c08a06b07a64803b3787861a3f276212fcccb51c2e6234077a9b8cb13047a8260405161042c9190610795565b60405180910390a25050565b60025481565b60003411610481576040517f08c379a000000000000000000000000000000000000000000000000000000000815260040161047890610715565b60405180910390fd5b346002600082825461049391906107c1565b925050819055503373ffffffffffffffffffffffffffffffffffffffff167f2a01595cddf097c90216094025db714da3f4e5bd8877b56ba86a24ecead8e543346040516104e09190610795565b60405180910390a2565b60008054906101000a900473ffffffffffffffffffffffffffffffffffffffff1681565b60008135905061051d816108a0565b92915050565b600081359050610532816108b7565b92915050565b600081359050610547816108ce565b92915050565b60006020828403121561055f57600080fd5b600061056d8482850161050e565b91505092915050565b6000806040838503121561058957600080fd5b600061059785828601610523565b92505060206105a885828601610538565b9150509250929050565b6105bb81610817565b82525050565b6105ca8161083b565b82525050565b60006105dd601f836107b0565b91507f446f6e6174696f6e206d7573742062652067726561746572207468616e2030006000830152602082019050919050565b600061061d6012836107b0565b91507f496e73756666696369656e742066756e647300000000000000000000000000006000830152602082019050919050565b600061065d601d836107b0565b91507f4f6e6c792061646d696e732063616e2072656c656173652066756e64730000006000830152602082019050919050565b600061069d600f836107b0565b91507f616c7265616479206170706c69656400000000000000000000000000000000006000830152602082019050919050565b6106d981610867565b82525050565b60006020820190506106f460008301846105b2565b92915050565b600060208201905061070f60008301846105c1565b92915050565b6000602082019050818103600083015261072e816105d0565b9050919050565b6000602082019050818103600083015261074e81610610565b9050919050565b6000602082019050818103600083015261076e81610650565b9050919050565b6000602082019050818103600083015261078e81610690565b9050919050565b60006020820190506107aa60008301846106d0565b92915050565b600082825260208201905092915050565b60006107cc82610867565b91506107d783610867565b9250827fffffffffffffffffffffffffffffffffffffffffffffffffffffffffffffffff0382111561080c5761080b610871565b5b828201905092915050565b600061082282610847565b9050919050565b600061083482610847565b9050919050565b60008115159050919050565b600073ffffffffffffffffffffffffffffffffffffffff82169050919050565b6000819050919050565b7f4e487b7100000000000000000000000000000000000000000000000000000000600052601160045260246000fd5b6108a981610817565b81146108b457600080fd5b50565b6108c081610829565b81146108cb57600080fd5b50565b6108d781610867565b81146108e257600080fd5b5056fea26469706673582212205453012486a76061e7ec6059d33afca77e50ca6589f84b17131891f0db38188a64736f6c63430008000033",
  "immutableReferences": {},
  "source": "// SPDX-License-Identifier: MIT\npragma solidity ^0.8.0;\n\ncontract Scholarship {\n    address public admin;\n    mapping(address => bool) public applicants;\n    uint256 public totalDonations;\n\n    event Donated(address indexed donor, uint256 amount);\n    event Applied(address indexed applicant);\n    event FundsReleased(address indexed recipient, uint256 amount);\n\n    constructor() {\n        admin = msg.sender;\n    }\n\n    function donate() public payable {\n        require(msg.value > 0, \"Donation must be greater than 0\");\n        totalDonations += msg.value;\n        emit Donated(msg.sender, msg.value);\n    }\n\n    function applyForScholarship() public {\n        require(!applicants[msg.sender], \"already applied\");\n        applicants[msg.sender] = true;\n        emit Applied(msg.sender);\n    }\n\n    function releaseFunds(address payable recipient, uint256 amount) public {\n        require(msg.sender == admin, \"Only admins can release funds\");\n        require(address(this).balance >= amount, \"Insufficient funds\");\n        recipient.transfer(amount);\n        emit FundsReleased(recipient, amount);\n    }\n\n    function getBalance() public view returns (uint256) {\n        return address(this).balance;\n    }\n}\n",
  "sourcePath": "/media/pascal/AE86B21786B1E04F/Users/pc/Documents/projects/github-workshop/blockchain_projects/scholarship-dapp/contracts/Scholarship.sol",
  "compiler": {
    "name": "solc",
    "version": "0.8.0+commit.c7dfd78e.Emscripten.clang"
  },
  "schemaVersion": "3.4.16",
  "updatedAt": "2025-06-02T14:48:35.339Z",
  "devdoc": {
    "kind": "dev",
    "methods": {},
    "version": 1
  },
  "userdoc": {
    "kind": "user",
    "methods": {},
    "version": 1
  }
}