{
  "contractName": "NameStorage",
  "abi": [
    {
      "inputs": [
        {
          "internalType": "string",
          "name": "_name",
          "type": "string"
        }
      ],
      "name": "setName",
      "outputs": [],
      "stateMutability": "nonpayable",
      "type": "function"
    },
    {
      "inputs": [
        {
          "internalType": "address",
          "name": "_user",
          "type": "address"
        }
      ],
      "name": "getName",
      "outputs": [
        {
          "internalType": "string",
          "name": "",
          "type": "string"
        }
      ],
      "stateMutability": "view",
      "type": "function",
      "constant": true
    },
    {
      "inputs": [],
      "name": "getMyName",
      "outputs": [
        {
          "internalType": "string",
          "name": "",
          "type": "string"
        }
      ],
      "stateMutability": "view",
      "type": "function",
      "constant": true
    }
  ],
  "bytecode": "0x608060405234801561001057600080fd5b506105ab806100206000396000f3fe608060405234801561001057600080fd5b50600436106100415760003560e01c80635fd4b08a1461004657806375a54bc214610076578063c47f002714610094575b600080fd5b610060600480360381019061005b91906103a2565b6100b0565b60405161006d9190610449565b60405180910390f35b61007e610180565b60405161008b9190610449565b60405180910390f35b6100ae60048036038101906100a991906103cb565b61024e565b005b60606000808373ffffffffffffffffffffffffffffffffffffffff1673ffffffffffffffffffffffffffffffffffffffff16815260200190815260200160002080546100fb906104ec565b80601f0160208091040260200160405190810160405280929190818152602001828054610127906104ec565b80156101745780601f1061014957610100808354040283529160200191610174565b820191906000526020600020905b81548152906001019060200180831161015757829003601f168201915b50505050509050919050565b60606000803373ffffffffffffffffffffffffffffffffffffffff1673ffffffffffffffffffffffffffffffffffffffff16815260200190815260200160002080546101cb906104ec565b80601f01602080910402602001604051908101604052809291908181526020018280546101f7906104ec565b80156102445780601f1061021957610100808354040283529160200191610244565b820191906000526020600020905b81548152906001019060200180831161022757829003601f168201915b5050505050905090565b81816000803373ffffffffffffffffffffffffffffffffffffffff1673ffffffffffffffffffffffffffffffffffffffff168152602001908152602001600020919061029b9291906102a0565b505050565b8280546102ac906104ec565b90600052602060002090601f0160209004810192826102ce5760008555610315565b82601f106102e757803560ff1916838001178555610315565b82800160010185558215610315579182015b828111156103145782358255916020019190600101906102f9565b5b5090506103229190610326565b5090565b5b8082111561033f576000816000905550600101610327565b5090565b6000813590506103528161055e565b92915050565b60008083601f84011261036a57600080fd5b8235905067ffffffffffffffff81111561038357600080fd5b60208301915083600182028301111561039b57600080fd5b9250929050565b6000602082840312156103b457600080fd5b60006103c284828501610343565b91505092915050565b600080602083850312156103de57600080fd5b600083013567ffffffffffffffff8111156103f857600080fd5b61040485828601610358565b92509250509250929050565b600061041b8261046b565b6104258185610476565b93506104358185602086016104b9565b61043e8161054d565b840191505092915050565b600060208201905081810360008301526104638184610410565b905092915050565b600081519050919050565b600082825260208201905092915050565b600061049282610499565b9050919050565b600073ffffffffffffffffffffffffffffffffffffffff82169050919050565b60005b838110156104d75780820151818401526020810190506104bc565b838111156104e6576000848401525b50505050565b6000600282049050600182168061050457607f821691505b602082108114156105185761051761051e565b5b50919050565b7f4e487b7100000000000000000000000000000000000000000000000000000000600052602260045260246000fd5b6000601f19601f8301169050919050565b61056781610487565b811461057257600080fd5b5056fea26469706673582212207f3c3bb43c076eee5e82ec5141e7ebc12825e0e674c9ddfa3a8980d71ce266d564736f6c63430008000033",
  "immutableReferences": {},
  "source": "// SPDX-License-Identifier: MIT\npragma solidity ^0.8.0;\n\ncontract NameStorage {\n    mapping(address => string) private names;\n\n    // Set the name for the sender's address\n    function setName(string calldata _name) external {\n        names[msg.sender] = _name;\n    }\n\n    // Get the name associated with an address\n    function getName(address _user) external view returns (string memory) {\n        return names[_user];\n    }\n\n    // Get the name for the sender's address\n    function getMyName() external view returns (string memory) {\n        return names[msg.sender];\n    }\n}\n",
  "sourcePath": "/media/pascal/AE86B21786B1E04F/Users/pc/Documents/projects/github-workshop/blockchain_projects/hello-world-dapp/contracts/NameStorage.sol",
  "compiler": {
    "name": "solc",
    "version": "0.8.0+commit.c7dfd78e.Emscripten.clang"
  },
  "schemaVersion": "3.4.16",
  "updatedAt": "2025-06-21T01:25:26.173Z",
  "networkType": "ethereum",
  "devdoc": {
    "kind": "dev",
    "methods": {},
    "version": 1
  },
  "userdoc": {
    "kind": "user",
    "methods": {},
    "version": 1
  }
}