{
  "contractName": "Tickets",
  "abi": [
    {
      "inputs": [],
      "stateMutability": "nonpayable",
      "type": "constructor"
    },
    {
      "anonymous": false,
      "inputs": [
        {
          "indexed": true,
          "internalType": "uint256",
          "name": "id",
          "type": "uint256"
        },
        {
          "indexed": false,
          "internalType": "string",
          "name": "eventName",
          "type": "string"
        },
        {
          "indexed": true,
          "internalType": "address",
          "name": "owner",
          "type": "address"
        }
      ],
      "name": "TicketIssued",
      "type": "event"
    },
    {
      "anonymous": false,
      "inputs": [
        {
          "indexed": true,
          "internalType": "uint256",
          "name": "id",
          "type": "uint256"
        },
        {
          "indexed": true,
          "internalType": "address",
          "name": "from",
          "type": "address"
        },
        {
          "indexed": true,
          "internalType": "address",
          "name": "to",
          "type": "address"
        }
      ],
      "name": "TicketTransferred",
      "type": "event"
    },
    {
      "inputs": [],
      "name": "nextTicketId",
      "outputs": [
        {
          "internalType": "uint256",
          "name": "",
          "type": "uint256"
        }
      ],
      "stateMutability": "view",
      "type": "function",
      "constant": true
    },
    {
      "inputs": [
        {
          "internalType": "uint256",
          "name": "",
          "type": "uint256"
        }
      ],
      "name": "tickets",
      "outputs": [
        {
          "internalType": "uint256",
          "name": "id",
          "type": "uint256"
        },
        {
          "internalType": "string",
          "name": "eventName",
          "type": "string"
        },
        {
          "internalType": "address",
          "name": "owner",
          "type": "address"
        },
        {
          "internalType": "bool",
          "name": "isValid",
          "type": "bool"
        }
      ],
      "stateMutability": "view",
      "type": "function",
      "constant": true
    },
    {
      "inputs": [
        {
          "internalType": "string",
          "name": "_eventName",
          "type": "string"
        }
      ],
      "name": "issueTicket",
      "outputs": [
        {
          "internalType": "uint256",
          "name": "",
          "type": "uint256"
        }
      ],
      "stateMutability": "nonpayable",
      "type": "function"
    },
    {
      "inputs": [
        {
          "internalType": "uint256",
          "name": "_ticketId",
          "type": "uint256"
        },
        {
          "internalType": "address",
          "name": "_to",
          "type": "address"
        }
      ],
      "name": "transferTicket",
      "outputs": [],
      "stateMutability": "nonpayable",
      "type": "function"
    },
    {
      "inputs": [
        {
          "internalType": "uint256",
          "name": "_ticketId",
          "type": "uint256"
        }
      ],
      "name": "verifyTicket",
      "outputs": [
        {
          "internalType": "bool",
          "name": "",
          "type": "bool"
        }
      ],
      "stateMutability": "view",
      "type": "function",
      "constant": true
    },
    {
      "inputs": [
        {
          "internalType": "uint256",
          "name": "_ticketId",
          "type": "uint256"
        }
      ],
      "name": "invalidateTicket",
      "outputs": [],
      "stateMutability": "nonpayable",
      "type": "function"
    }
  ],
  "bytecode": "0x608060405234801561001057600080fd5b506000600181905550610e1f806100286000396000f3fe608060405234801561001057600080fd5b50600436106100625760003560e01c806350b4471214610067578063543cb81f1461009a5780636031a52f146100ca578063679ebf1a146100e8578063a6a77d9814610104578063c7ddab3614610134575b600080fd5b610081600480360381019061007c919061082c565b610150565b6040516100919493929190610b1b565b60405180910390f35b6100b460048036038101906100af919061082c565b610235565b6040516100c19190610a43565b60405180910390f35b6100d2610261565b6040516100df9190610b00565b60405180910390f35b61010260048036038101906100fd9190610855565b610267565b005b61011e600480360381019061011991906107eb565b61041f565b60405161012b9190610b00565b60405180910390f35b61014e6004803603810190610149919061082c565b610580565b005b600060205280600052604060002060009150905080600001549080600101805461017990610ca2565b80601f01602080910402602001604051908101604052809291908181526020018280546101a590610ca2565b80156101f25780601f106101c7576101008083540402835291602001916101f2565b820191906000526020600020905b8154815290600101906020018083116101d557829003601f168201915b5050505050908060020160009054906101000a900473ffffffffffffffffffffffffffffffffffffffff16908060020160149054906101000a900460ff16905084565b600080600083815260200190815260200160002060020160149054906101000a900460ff169050919050565b60015481565b60008083815260200190815260200160002060020160149054906101000a900460ff166102c9576040517f08c379a00000000000000000000000000000000000000000000000000000000081526004016102c090610ae0565b60405180910390fd5b3373ffffffffffffffffffffffffffffffffffffffff1660008084815260200190815260200160002060020160009054906101000a900473ffffffffffffffffffffffffffffffffffffffff1673ffffffffffffffffffffffffffffffffffffffff161461036c576040517f08c379a000000000000000000000000000000000000000000000000000000000815260040161036390610a80565b60405180910390fd5b8060008084815260200190815260200160002060020160006101000a81548173ffffffffffffffffffffffffffffffffffffffff021916908373ffffffffffffffffffffffffffffffffffffffff1602179055508073ffffffffffffffffffffffffffffffffffffffff163373ffffffffffffffffffffffffffffffffffffffff16837fd15524263ae66f75c1e604c47db6085085110f23ef7322b355179ac5e3b0783a60405160405180910390a45050565b6000604051806080016040528060015481526020018381526020013373ffffffffffffffffffffffffffffffffffffffff1681526020016001151581525060008060015481526020019081526020016000206000820151816000015560208201518160010190805190602001906104979291906106b6565b5060408201518160020160006101000a81548173ffffffffffffffffffffffffffffffffffffffff021916908373ffffffffffffffffffffffffffffffffffffffff16021790555060608201518160020160146101000a81548160ff0219169083151502179055509050503373ffffffffffffffffffffffffffffffffffffffff166001547f8250c3a9e75038bfaffc6681d94780535dc168a5b2932785d9f51f4e195293a68460405161054b9190610a5e565b60405180910390a36001600081548092919061056690610cd4565b9190505550600180546105799190610be4565b9050919050565b60008082815260200190815260200160002060020160149054906101000a900460ff166105e2576040517f08c379a00000000000000000000000000000000000000000000000000000000081526004016105d990610ac0565b60405180910390fd5b3373ffffffffffffffffffffffffffffffffffffffff1660008083815260200190815260200160002060020160009054906101000a900473ffffffffffffffffffffffffffffffffffffffff1673ffffffffffffffffffffffffffffffffffffffff1614610685576040517f08c379a000000000000000000000000000000000000000000000000000000000815260040161067c90610aa0565b60405180910390fd5b600080600083815260200190815260200160002060020160146101000a81548160ff02191690831515021790555050565b8280546106c290610ca2565b90600052602060002090601f0160209004810192826106e4576000855561072b565b82601f106106fd57805160ff191683800117855561072b565b8280016001018555821561072b579182015b8281111561072a57825182559160200191906001019061070f565b5b509050610738919061073c565b5090565b5b8082111561075557600081600090555060010161073d565b5090565b600061076c61076784610b98565b610b67565b90508281526020810184848401111561078457600080fd5b61078f848285610c60565b509392505050565b6000813590506107a681610dbb565b92915050565b600082601f8301126107bd57600080fd5b81356107cd848260208601610759565b91505092915050565b6000813590506107e581610dd2565b92915050565b6000602082840312156107fd57600080fd5b600082013567ffffffffffffffff81111561081757600080fd5b610823848285016107ac565b91505092915050565b60006020828403121561083e57600080fd5b600061084c848285016107d6565b91505092915050565b6000806040838503121561086857600080fd5b6000610876858286016107d6565b925050602061088785828601610797565b9150509250929050565b61089a81610c18565b82525050565b6108a981610c2a565b82525050565b60006108ba82610bc8565b6108c48185610bd3565b93506108d4818560208601610c6f565b6108dd81610daa565b840191505092915050565b60006108f5602383610bd3565b91507f4f6e6c7920746865207469636b6574206f776e65722063616e207472616e736660008301527f65722e00000000000000000000000000000000000000000000000000000000006020830152604082019050919050565b600061095b602e83610bd3565b91507f4f6e6c7920746865207469636b6574206f776e65722063616e20696e76616c6960008301527f646174652061207469636b65742e0000000000000000000000000000000000006020830152604082019050919050565b60006109c1601a83610bd3565b91507f5469636b657420697320616c726561647920696e76616c69642e0000000000006000830152602082019050919050565b6000610a01601483610bd3565b91507f5469636b6574206973206e6f742076616c69642e0000000000000000000000006000830152602082019050919050565b610a3d81610c56565b82525050565b6000602082019050610a5860008301846108a0565b92915050565b60006020820190508181036000830152610a7881846108af565b905092915050565b60006020820190508181036000830152610a99816108e8565b9050919050565b60006020820190508181036000830152610ab98161094e565b9050919050565b60006020820190508181036000830152610ad9816109b4565b9050919050565b60006020820190508181036000830152610af9816109f4565b9050919050565b6000602082019050610b156000830184610a34565b92915050565b6000608082019050610b306000830187610a34565b8181036020830152610b4281866108af565b9050610b516040830185610891565b610b5e60608301846108a0565b95945050505050565b6000604051905081810181811067ffffffffffffffff82111715610b8e57610b8d610d7b565b5b8060405250919050565b600067ffffffffffffffff821115610bb357610bb2610d7b565b5b601f19601f8301169050602081019050919050565b600081519050919050565b600082825260208201905092915050565b6000610bef82610c56565b9150610bfa83610c56565b925082821015610c0d57610c0c610d1d565b5b828203905092915050565b6000610c2382610c36565b9050919050565b60008115159050919050565b600073ffffffffffffffffffffffffffffffffffffffff82169050919050565b6000819050919050565b82818337600083830152505050565b60005b83811015610c8d578082015181840152602081019050610c72565b83811115610c9c576000848401525b50505050565b60006002820490506001821680610cba57607f821691505b60208210811415610cce57610ccd610d4c565b5b50919050565b6000610cdf82610c56565b91507fffffffffffffffffffffffffffffffffffffffffffffffffffffffffffffffff821415610d1257610d11610d1d565b5b600182019050919050565b7f4e487b7100000000000000000000000000000000000000000000000000000000600052601160045260246000fd5b7f4e487b7100000000000000000000000000000000000000000000000000000000600052602260045260246000fd5b7f4e487b7100000000000000000000000000000000000000000000000000000000600052604160045260246000fd5b6000601f19601f8301169050919050565b610dc481610c18565b8114610dcf57600080fd5b50565b610ddb81610c56565b8114610de657600080fd5b5056fea264697066735822122024c8ac0f315ca5b774f8c88654e39d1edeac450639c7f663e1db6b24b110295c64736f6c63430008000033",
  "immutableReferences": {},
  "source": "// SPDX-License-Identifier: MIT\npragma solidity ^0.8.0;\n\ncontract Tickets {\n    struct Ticket {\n        uint256 id;\n        string eventName;\n        address owner;\n        bool isValid;\n    }\n\n    mapping(uint256 => Ticket) public tickets;\n    uint256 public nextTicketId;\n\n    event TicketIssued(uint256 indexed id, string eventName, address indexed owner);\n    event TicketTransferred(uint256 indexed id, address indexed from, address indexed to);\n\n    constructor() {\n        nextTicketId = 0;\n    }\n\n    function issueTicket(string memory _eventName) public returns (uint256) {\n        tickets[nextTicketId] = Ticket(nextTicketId, _eventName, msg.sender, true);\n        emit TicketIssued(nextTicketId, _eventName, msg.sender);\n        nextTicketId++;\n        return nextTicketId - 1;\n    }\n\n    function transferTicket(uint256 _ticketId, address _to) public {\n        require(tickets[_ticketId].isValid, \"Ticket is not valid.\");\n        require(tickets[_ticketId].owner == msg.sender, \"Only the ticket owner can transfer.\");\n\n        tickets[_ticketId].owner = _to;\n        emit TicketTransferred(_ticketId, msg.sender, _to);\n    }\n\n    function verifyTicket(uint256 _ticketId) public view returns (bool) {\n        return tickets[_ticketId].isValid;\n    }\n\n    function invalidateTicket(uint256 _ticketId) public {\n        require(tickets[_ticketId].isValid, \"Ticket is already invalid.\");\n        require(tickets[_ticketId].owner == msg.sender, \"Only the ticket owner can invalidate a ticket.\");\n        tickets[_ticketId].isValid = false;\n    }\n} ",
  "sourcePath": "/media/pascal/AE86B21786B1E04F/Users/pc/Documents/projects/github-workshop/blockchain_projects/fake-proof-tickets/contracts/Tickets.sol",
  "compiler": {
    "name": "solc",
    "version": "0.8.0+commit.c7dfd78e.Emscripten.clang"
  },
  "schemaVersion": "3.4.16",
  "updatedAt": "2025-06-19T20:07:02.270Z",
  "networkType": "ethereum",
  "devdoc": {
    "kind": "dev",
    "methods": {},
    "version": 1
  },
  "userdoc": {
    "kind": "user",
    "methods": {},
    "version": 1
  }
}